:02000000B32823
:0E0006008312031323088A00220882000800D8
:1000140083120313F8010830FC00700DF80D740806
:10002400F80203181728F8070310F00DFC0B0F282B
:020034000800C2
:100036003C28C03083120313F0006628F930F00024
:100046006628A430F0006628B030F00066289930A3
:10005600F00066289230F00066288230F0006628AC
:10006600F830F00066288030F00066289030F00006
:100076006628831203132908003A03191C28290845
:10008600013A031921282908023A031924282908C4
:10009600033A031927282908043A03192A282908A4
:1000A600053A03192D282908063A03193028290884
:1000B600073A031933282908083A03193628290864
:0800C600093A0319392808006A
:1000CE0003208A110A128000840AA20A0319A30AC5
:0800DE00F003031D6728080070
:1000E6000A3083120313F4002508F0000A2078086A
:1000F600F0007008A8002808A4000A30F4002508BB
:10010600F0000A200A30F4000A207808F00070088F
:10011600A1006430F4002508F0000A207008A00051
:100126000511851405142808A9001B208312031342
:10013600700886000515851005142108A9001B20E6
:100146008312031370088600051585140510200810
:10015600A9001B20831203137008860005140800EB
:100166000730831203139F003830831685008030D2
:100176008600283081008312A701851DD428F1014D
:10018600051AF10A7108003C031CCA28C228F101AD
:10019600051AF10A7108003C0318D228CA28A70AD2
:1001A600C0282708A6002708A50073203330FB00C7
:1001B600BB30FC00DF30FD00FD0BDF28FC0BDF2829
:0C01C600FB0BDF2800000000BE28E8282A
:02400E006A2125
:00000001FF
